:03000000020C39B6
:0C0C3900787FE4F6D8FD758175020C8010
:1008000011040F020D040F021103120111020F0453
:10081000000211040F020D040F0211031201110254
:100820000F04000211040F020D040F021103120144
:1008300011020F04000211040F020D040F02110334
:10084000120111020F040D010F01110211020F021A
:10085000120211020F020F020F020D010D0112020E
:1008600011020F020F040D010F0111060006110203
:1008700014021901190118041902180419021801A7
:1008800016011402000214020F02120212041102D5
:10089000110200020802120211020F0211041402D6
:1008A0000D0600040D020F020D030D010D021402CE
:1008B0000D02120411020F040D020D0600040D01B9
:1008C0000F01110211020F02120211020F020F0298
:1008D0000F020D010D01120211020F020F040D0192
:1008E0000F01110600061102140219021804190260
:1008F00018041902180116011402000214020F0252
:100900001202120411021102000208021202110264
:100910000F02110414020D0A0D010D010F020D0248
:1009200000020D0214020D02120212011201110145
:100930000F010F040D020D06000616021402140228
:1009400014021202120211020F020F020F0414020B
:100950001402120112011202120211020F020F04FC
:100960000D010C010D0400021602140214021402FF
:100970001202120211020F020F020F040F021102E3
:10098000110111011101110111020F0211021B04C9
:1009900019021902000219021804160216060004B0
:1009A000160216021402120112011206110112019E
:1009B000140A000611010F0111010F0111011201AA
:1009C0001404120114011604160118011902000280
:1009D0001B01190114040D02140212021102110468
:1009E000110111011404000211010F0111010F0185
:1009F0001101120114041201140116041601180148
:100A00001902000219011D021D0200011B011E0234
:100A10001D021B021B031901190118011902000212
:100A2000140119011B0419021902000214021B040B
:100A3000190219020002140119011B0419021902FA
:100A40000002140119011B031D011B0219020002FF
:100A500019021904160216041402140412021202D6
:100A600011020F02110600061102120211021202F7
:080A700011020F020D06250121
:100E2E00204A0A0000F921F980F9E1FA36FA8CFA23
:100E3E00D8FB23FB68FBAAFBE9FC23FC5BFC8FFCC5
:100E4E00C0FCEFFD1BFD45FD6CFD91FDB4FDD5FD18
:100E5E00F4FE12FE2EFE47FE60FE78FE8EFEA2FE11
:0D0E6E00B6FEC9FEDAFEEBFEFAFF09FF1723
:0B0FD500AF67AE66AD65AC64120EEABB
:100FE0007E08C294EF339296EF25E0FFD294DEF2B2
:020FF000D29697
:010FF20022DC
:101035007E08C294D294EF25E0FF30950343070163
:02104500DEF0DB
:011047002286
:10100A00E4FC121035AD07ED6009ED640160040CD3
:05101A00BC09EFAF0569
:01101F0022AE
:100F6700EF4440FF120FE07818120FD57810120FD8
:100F7700D5AF67AE66AD65AC647808120EEA120F9E
:0B0F8700E0AF67120FE0AF68020FE060
:100DC700E4F572F573F574F5757D01D297FC7FFF35
:100DD700120FE00CBC0AF7C297E4F567F566F565F4
:100DE700F564756895FF120F6712100AAD07ED6479
:100DF7000160037F0022BD0124D2977FFF120FE01D
:100E0700C2977567007566C07565FF75640075687C
:100E1700FF7F01120F6712100AAD0780D9D2977FA3
:060E2700FF120FE07F0145
:010E2D0022A2
:0E0B94008B698A6A896B8F6F8E6E8D6D8C6C8B
:100BA200C2978F678E668D658C647568FF7F181299
:100BB2000F6712100AEF707C7FFF120FE07FFF12A7
:100BC2000FE07FFF120FE07FFE120FE0E4FDFCC397
:100BD200ED9571EC9570501CAB69056BE56BAA6ADB
:100BE2007002056A14F9120EBFFF120FE00DBD006C
:100BF200010C80DBC3EC9402500CE4FF120FE00DF9
:100C0200BD00010C80EE7FFF120FE07FFF120FE0AC
:100C1200121035AD07121035EF60FA53050FD29757
:100C22007FFF120FE0BD0B037F0022BD05037F0192
:060C3200227F00227F007A
:010C38002299
:0F0CC5007B01FCAF57AE56AD557561007562B03F
:0E0CD4008B5A8A5B895C8F608E5F8D5E8C5DB3
:100CE200C2978F678E668D658C647568FF7F11125F
:100CF2000F6712100AEF704E121035BFFEFAE4FDB4
:100D0200FCC3ED9562EC9561501C121035AB5A058F
:100D12005CE55CAA5B7002055B14F9EF120ED80D5C
:100D2200BD00010C80DBC3EC9402500A1210350D99
:100D3200BD00010C80F0121035121035D2977FFFE2
:080D4200120FE07F01227F0087
:010D4A002286
:0E109100759840758920758DFDD28EC299220A
:10105B00758920E4F587759850758DFD758BFDD2DC
:02106B008E22D3
:100FB600120EBFFF6018B40A0575990D80028F994D
:0F0FC6003099FDC299740129F9E43AFA80E222C8
:0C10AD00EF4E6007EF1F70F81E80F52268
:10106D00C2A2D2A1D2A38F80C2A400D2A4D2A2C206
:02107D00A122AE
:10107F00C2A2C2A1D2A38F80C2A400D2A4D2A2D2F4
:02108F00A1229C
:0E109F00AE05AD07AF0612107FAF0502106D53
:10104800AE07AC03AF0512107FAF0412107FAF06D6
:0310580002106D16
:100EFD00C2A07FD07E071210ADD2A0E4FBFD7F40D3
:100F0D001210487D107F411210487B08FD7F421260
:100F1D0010487D107F431210487FA012106D7F8006
:0D0F2D0012106D7F9212106D7F9F02106DEB
:100F3A00E4FBFD7F241210487FB012106DFCE4FF21
:100F4A0012107F0DBD00010CE4B505F2ECB420EEE1
:0D0F5A007FB212106DE4FBFD7F24021048F1
:020F9200AC07AA
:100F9400ED75F010A4AD047C002DFFEC35F0FEEBF4
:100FA4006007E42FFF74013EFEAD07AB067F240209
:020FB4001048E3
:030D4B00FAFDFCB2
:0C0D4E008E5A8F5B8C5C8D5D8A5E8B5F23
:100D5A00E4F567F566F565F564E561C39560505C91
:100D6A00E4FAE55FC4F8540FC868FFE55EC454F0BE
:100D7A0048FEE55D2FCFE55C3ECF2400F563EF34F6
:100D8A0008F562AD63FB7F24121048055BE55BAE94
:100D9A005A7002055A14F5828E83E0FD7FC0121044
:100DAA009F055DE55D7002055C0ABA0BB574052501
:0C0DBA005DF55DE4355CF55C0561809D35
:010DC600220A
:100A7800E4F557F556F555F554F558755940120EE5
:100A8800FD120F3A7F9812106D120FF37B017A0056
:100A98007900AC54120CC8E55724B0F557E4355624
:100AA800F556E43555F555E43554F5547A0079B0E2
:100AB800120CC5E55724B0F557E43556F556E4351C
:100AC80055F555E43554F5547A017960120CC5E5AD
:100AD8005724B0F557E43556F556E43555F555E441
:100AE8003554F5547B017A027910120CC7E5572466
:100AF800B0F557E43556F556E43555F555E4355413
:100B0800F5547E007F00756010E4F561FB120D4B13
:100B18007E007FB0756010E4F5617B10120D4B7E8E
:100B2800017F60756010E4F5617B20FAFDFC120D11
:100B38004E7E027F10756010E4F5617B30FAFDFC93
:100B4800120D4EE509B42504C28C80FE75F002E54D
:100B580008A42400F582E5F03408F583E493F50948
:100B680075F002E508A42401F582E5F03408F58360
:100B7800E49375F08CA4FFAEF01210200508C28C27
:0C0B88007F057E00121020D28C020A941F
:03000B00020E7C66
:100E7C00C0E0C0D075D000C000C004C005C006C022
:100E8C0007E50925E0240AF8E6FE08E64E6015E5BC
:100E9C000925E0240AF8E6FC08E6FDECF58CAF0524
:100EAC008F8AB2A5D007D006D005D004D000D0D000
:030EBC00D0E03251
:100FF3005389F0438901758CDCE4F58AC28DD28C68
:07100300D2A9D2AFC2B9224D
:10102000EF1FAC0670011E4C600A7D027CC7DCFE1F
:04103000DDFC80EC77
:011034002299
:100C4500020A78E493A3F8E493A34003F68001F243
:100C550008DFF48029E493A3F85407240CC8C333B0
:100C6500C4540F4420C8834004F456800146F6DF7F
:100C7500E4800B0102040810204080900E2EE47ED3
:100C8500019360BCA3FF543F30E509541FFEE49374
:100C9500A360010ECF54C025E060A840B8E493A33B
:100CA500FAE493A3F8E493A3C8C582C8CAC583CA66
:100CB500F0A3C8C582C8CAC583CADFE9DEE780BE1E
:010E7B000076
:100EBF00BB010689828A83E0225002E722BBFE0231
:090ECF00E32289828A83E4932264
:100ED800BB010689828A83F0225002F722BBFE01F9
:020EE800F322F3
:100EEA00E8600FECC313FCED13FDEE13FEEF13FFE6
:030EFA00D8F1220A
:00000001FF
