:03000000020B539D
:0C0B5300787FE4F6D8FD75812A020B9A29
:0C080000012A0001270001280001290046
:0E108700438910758DB1758BE0D2ABD28E22ED
:03001B00020E646E
:040E6400C0E0C0D05A
:100E6800758DB1758BE075270020900375270120DB
:100E78009103752702209203752703209303752792
:100E880004E527B52817E5297009E5276005F52A3F
:100E9800752901E5296006E5277002F529852728C7
:050EA800D0D0D0E032C3
:10080C00604A04500000F921F980F9E1FA36FA8CBB
:10081C00FAD8FB23FB68FBAAFBE9FC23FC5BFC8FEF
:10082C00FCC0FCEFFD1BFD45FD6CFD91FDB4FDD541
:10083C00FDF4FE12FE2EFE47FE60FE78FE8EFEA23A
:10084C00FEB6FEC9FEDAFEEBFEFAFF09FF17619059
:10085C00000011040F020D040F021103120111020A
:10086C000F04000211040F020D040F0211031201F8
:10087C0011020F04000211040F020D040F021103E8
:10088C00120111020F04000211040F020D040F02D9
:10089C001103120111020F040D010F0111021102BB
:1008AC000F02120211020F020F020F020D010D01B5
:1008BC00120211020F020F040D010F0111060006A6
:1008CC001102140219011901180419021804190251
:1008DC00180116011402000214020F021202120473
:1008EC001102110200020802120211020F0211047D
:1008FC0014020D0600040D020F020D030D010D0272
:10090C0014020D02120411020F040D020D06000454
:10091C000D010F01110211020F02120211020F023E
:10092C000F020F020D010D01120211020F020F0432
:10093C000D010F0111060006110214021902180410
:10094C0019021804190218011601140200021402EB
:10095C000F0212021204110211020002080212020A
:10096C0011020F02110414020D0A0D010D010F02E8
:10097C000D0200020D0214020D02120212011201EC
:10098C0011010F010F040D020D06000616021402D0
:10099C00140214021202120211020F020F020F04AF
:1009AC0014021402120112011202120211020F029D
:1009BC000F040D010C010D0400021902190416029A
:1009CC001604140214041202120211020F02110670
:1009DC000006110212021102120211020F020D0680
:0A09EC002501C18004210000000075
:0B0FCB00AF15AE14AD13AC12120E51A6
:100FD6007E08C294EF339296EF25E0FFD294DEF2BC
:020FE600D296A1
:010FE80022E6
:10102B007E08C294D294EF25E0FF3095034307016D
:02103B00DEF0E5
:01103D002290
:10100000E4FC12102BAD07ED6009ED640160040CE7
:05101000BC09EFAF0573
:0110150022B8
:100F5D00EF4440FF120FD67818120FCB7810120FF6
:100F6D00CBAF15AE14AD13AC127808120E51120F93
:0B0F7D00D6AF15120FD6AF16020FD62C
:100D5B00E4F508F509F50AF50B7D01D297FC7FFF49
:100D6B00120FD60CBC0AF7C297E4F515F514F51360
:100D7B00F512751695FF120F5D121000AD07ED649D
:100D8B000160037F0022BD0124D2977FFF120FD693
:100D9B00C2977515007514C07513FF751200751683
:100DAB00FF7F01120F5D121000AD0780D9D2977F24
:060DBB00FF120FD67F01BC
:010DC100220F
:0E0AAE008B178A1889198F1D8E1C8D1B8C1AB0
:100ABC00C2978F158E148D138C127516FF7F18121A
:100ACC000F5D121000EF707C7FFF120FD67FFF12AC
:100ADC000FD67FFF120FD67FFE120FD6E4FDFCC39C
:100AEC00ED951FEC951E501CAB170519E519AA18AE
:100AFC007002051814F9120E15FF120FD60DBD0059
:100B0C00010C80DBC3EC9402500CE4FF120FD60DE9
:100B1C00BD00010C80EE7FFF120FD67FFF120FD6A7
:100B2C0012102BAD0712102BEF60FA53050FD29752
:100B3C007FFF120FD6BD0B037F0022BD05037F0183
:060B4C00227F00227F0061
:010B52002280
:0F0BDF007B01FCAF24AE23AD22750F007510B063
:0E0BEE008B088A09890A8F0E8E0D8D0C8C0BD8
:100BFC00C2978F158E148D138C127516FF7F1112E0
:100C0C000F5D121000EF704E12102BBFFEFAE4FDB8
:100C1C00FCC3ED9510EC950F501C12102BAB080576
:100C2C000AE50AAA097002050914F9EF120E2E0D35
:100C3C00BD00010C80DBC3EC9402500A12102B0D8A
:100C4C00BD00010C80F012102B12102BD2977FFFDD
:080C5C00120FD67F01227F0078
:010C6400226D
:0E109500759840758920758DFDD28EC2992206
:10105100758920E4F587759850758DFD758BFDD2E6
:021061008E22DD
:100FAC00120E15FF6018B40A0575990D80028F9901
:0F0FBC003099FDC299740129F9E43AFA80E222D2
:0C10B100EF4E6007EF1F70F81E80F52264
:10106300C2A2D2A1D2A38F80C2A400D2A4D2A2C210
:02107300A122B8
:10107500C2A2C2A1D2A38F80C2A400D2A4D2A2D2FE
:02108500A122A6
:0E10A300AE05AD07AF06121075AF0502106363
:10103E00AE07AC03AF05121075AF04121075AF06F4
:03104E000210632A
:100EF300C2A07FD07E071210B1D2A0E4FBFD7F40D9
:100F030012103E7D107F4112103E7B08FD7F42127E
:100F1300103E7D107F4312103E7FA01210637F802E
:0D0F23001210637F921210637F9F02106313
:100F3000E4FBFD7F2412103E7FB0121063FCE4FF3F
:100F40001210750DBD00010CE4B505F2ECB420EEF5
:0D0F50007FB2121063E4FBFD7F2402103E0F
:020F8800AC07B4
:100F8A00ED75F010A4AD047C002DFFEC35F0FEEBFE
:100F9A006007E42FFF74013EFEAD07AB067F240213
:020FAA00103EF7
:030C6500FAFDFC99
:0C0C68008E088F098C0A8D0B8A0C8B0DF6
:100C7400E4F515F514F513F512E50FC3950E505C64
:100C8400E4FAE50DC4F8540FC868FFE50CC454F049
:100C940048FEE50B2FCFE50A3ECF2400F511EF34D3
:100CA40008F510AD11FB7F2412103E0509E509AECD
:100CB400087002050814F5828E83E0FD7FC01210CF
:100CC400A3050BE50B7002050A0ABA0BB5740525DA
:0C0CD4000BF50BE4350AF50A050F809DB6
:010CE00022F1
:1009F7007B017A017990AC21120BE2E52424B0F552
:100A070024E43523F523E43522F522E43521F521C5
:100A17007A027940120BDFE52424B0F524E435236C
:100A2700F523E43522F522E43521F5217A0279F020
:100A3700120BDFE52424B0F524E43523F523E43550
:100A470022F522E43521F5217B017A0379A0120BE7
:100A5700E1E52424B0F524E43523F523E43522F534
:100A670022E43521F5217E017F90750E10E4F50F04
:100A7700FB120C657E027F40750E10E4F50F7B10AC
:100A8700120C657E027FF0750E10E4F50F7B20FADD
:100A9700FDFC120C687E037FA0750E10E4F50F7B3A
:070AA70030FAFDFC020C68AF
:100EAD00E526B42505C28CC2002275F002E525A405
:100EBD002400F582E5F03400F583E0F52675F002A7
:100ECD00E525A42401F582E5F03400F583E075F005
:100EDD008CA4FFAEF01210160525C28C7F057E0086
:060EED00121016D28C2247
:100CE100120EF3120F307F98121063120D5BEF603A
:100CF100FA120FE9121087E52A605424FE600E14DF
:100D0100600D14603C24037043B200803F802DE4E9
:100D11007FC07E02FDFCAB24AA23A922A821C31215
:100D21000E404028E52494C0F524E5239402F523E0
:100D3100E5229400F522E5219400F5211209F780BE
:100D41000BE4F524F523F522F521C200E4F52A3060
:0A0D510000A51209F7120EAD809DF7
:03000B00020DC221
:100DC200C0E0C083C082C0D075D000C004C005C0DE
:100DD20006C007E52625E02450F582E43404F583B5
:100DE200E0FEA3E04E601BE52625E02450F582E4F8
:100DF2003404F583E0FCA3E0FDECF58CAF058F8AAB
:100E0200B2A5D007D006D005D004D0D0D082D083EE
:030E1200D0E032FB
:10101600EF1FAC0670011E4C600A7D027CC7DCFE29
:04102600DDFC80EC81
:01102A0022A3
:100FE9005389F0438901758CDCE4F58AC28DD28C72
:070FF900D2A9D2AFC2B92258
:100B5F00020CE1E493A3F8E493A34003F68001F2BF
:100B6F0008DFF48029E493A3F85407240CC8C33397
:100B7F00C4540F4420C8834004F456800146F6DF66
:100B8F00E4800B0102040810204080900800E47EEE
:100B9F00019360BCA3FF543F30E509541FFEE4935B
:100BAF00A360010ECF54C025E060A840B8E493A322
:100BBF00FAE493A3F8E493A3C8C582C8CAC583CA4D
:100BCF00F0A3C8C582C8CAC583CADFE9DEE780BE05
:0109F6000000
:100E1500BB010689828A83E0225002E722BBFE02DB
:090E2500E32289828A83E493220E
:100E2E00BB010689828A83F0225002F722BBFE01A3
:020E3E00F3229D
:100E4000EB9FF5F0EA9E42F0E99D42F0E89C45F008
:010E5000227F
:100E5100E8600FECC313FCED13FDEE13FEEF13FF7F
:030E6100D8F122A3
:00000001FF
